{
  "_format": "hh-sol-artifact-1",
  "contractName": "Identity",
  "sourceName": "contracts/Identity.sol",
  "abi": [
    {
      "inputs": [],
      "name": "getDocuments",
      "outputs": [
        {
          "components": [
            {
              "internalType": "bytes32",
              "name": "documentHash",
              "type": "bytes32"
            },
            {
              "internalType": "string",
              "name": "documentName",
              "type": "string"
            },
            {
              "internalType": "uint256",
              "name": "timestamp",
              "type": "uint256"
            }
          ],
          "internalType": "struct Identity.Document[]",
          "name": "",
          "type": "tuple[]"
        }
      ],
      "stateMutability": "view",
      "type": "function"
    },
    {
      "inputs": [],
      "name": "getHashedIdentity",
      "outputs": [
        {
          "internalType": "bytes32",
          "name": "",
          "type": "bytes32"
        },
        {
          "internalType": "bytes32",
          "name": "",
          "type": "bytes32"
        },
        {
          "internalType": "bytes32",
          "name": "",
          "type": "bytes32"
        },
        {
          "internalType": "bytes32",
          "name": "",
          "type": "bytes32"
        }
      ],
      "stateMutability": "view",
      "type": "function"
    },
    {
      "inputs": [],
      "name": "getIdentityAndDocuments",
      "outputs": [
        {
          "internalType": "bytes32",
          "name": "",
          "type": "bytes32"
        },
        {
          "internalType": "bytes32",
          "name": "",
          "type": "bytes32"
        },
        {
          "internalType": "bytes32",
          "name": "",
          "type": "bytes32"
        },
        {
          "internalType": "bytes32",
          "name": "",
          "type": "bytes32"
        },
        {
          "components": [
            {
              "internalType": "bytes32",
              "name": "documentHash",
              "type": "bytes32"
            },
            {
              "internalType": "string",
              "name": "documentName",
              "type": "string"
            },
            {
              "internalType": "uint256",
              "name": "timestamp",
              "type": "uint256"
            }
          ],
          "internalType": "struct Identity.Document[]",
          "name": "",
          "type": "tuple[]"
        }
      ],
      "stateMutability": "view",
      "type": "function"
    },
    {
      "inputs": [
        {
          "internalType": "string",
          "name": "_name",
          "type": "string"
        },
        {
          "internalType": "string",
          "name": "_email",
          "type": "string"
        },
        {
          "internalType": "string",
          "name": "_phone",
          "type": "string"
        },
        {
          "internalType": "string",
          "name": "_userAddress",
          "type": "string"
        }
      ],
      "name": "registerIdentity",
      "outputs": [],
      "stateMutability": "nonpayable",
      "type": "function"
    },
    {
      "inputs": [
        {
          "internalType": "string",
          "name": "_documentHash",
          "type": "string"
        },
        {
          "internalType": "string",
          "name": "_documentName",
          "type": "string"
        }
      ],
      "name": "uploadDocument",
      "outputs": [],
      "stateMutability": "nonpayable",
      "type": "function"
    }
  ],
  "bytecode": "0x608060405234801561001057600080fd5b506112f5806100206000396000f3fe608060405234801561001057600080fd5b50600436106100575760003560e01c806307e4643a1461005c5780634464fe331461007d578063b34d30f414610099578063e36fb7ac146100b5578063ef2d8700146100d7575b600080fd5b6100646100f5565b6040516100749493929190610982565b60405180910390f35b61009760048036038101906100929190610b21565b6101ec565b005b6100b360048036038101906100ae9190610b99565b610351565b005b6100bd61055e565b6040516100ce959493929190610e29565b60405180910390f35b6100df61079b565b6040516100ec9190610e83565b60405180910390f35b600080600080600260003373ffffffffffffffffffffffffffffffffffffffff1673ffffffffffffffffffffffffffffffffffffffff16815260200190815260200160002060009054906101000a900460ff16610187576040517f08c379a000000000000000000000000000000000000000000000000000000000815260040161017e90610f02565b60405180910390fd5b60008060003373ffffffffffffffffffffffffffffffffffffffff1673ffffffffffffffffffffffffffffffffffffffff1681526020019081526020016000209050806000015481600101548260020154836003015494509450945094505090919293565b600260003373ffffffffffffffffffffffffffffffffffffffff1673ffffffffffffffffffffffffffffffffffffffff16815260200190815260200160002060009054906101000a900460ff16610278576040517f08c379a000000000000000000000000000000000000000000000000000000000815260040161026f90610f02565b60405180910390fd5b600160003373ffffffffffffffffffffffffffffffffffffffff1673ffffffffffffffffffffffffffffffffffffffff1681526020019081526020016000206040518060600160405280846040516020016102d39190610f5e565b6040516020818303038152906040528051906020012081526020018381526020014281525090806001815401808255809150506001900390600052602060002090600302016000909190919091506000820151816000015560208201518160010190816103409190611181565b506040820151816002015550505050565b600260003373ffffffffffffffffffffffffffffffffffffffff1673ffffffffffffffffffffffffffffffffffffffff16815260200190815260200160002060009054906101000a900460ff16156103de576040517f08c379a00000000000000000000000000000000000000000000000000000000081526004016103d59061129f565b60405180910390fd5b6040518060800160405280856040516020016103fa9190610f5e565b604051602081830303815290604052805190602001208152602001846040516020016104269190610f5e565b604051602081830303815290604052805190602001208152602001836040516020016104529190610f5e565b6040516020818303038152906040528051906020012081526020018260405160200161047e9190610f5e565b604051602081830303815290604052805190602001208152506000803373ffffffffffffffffffffffffffffffffffffffff1673ffffffffffffffffffffffffffffffffffffffff168152602001908152602001600020600082015181600001556020820151816001015560408201518160020155606082015181600301559050506001600260003373ffffffffffffffffffffffffffffffffffffffff1673ffffffffffffffffffffffffffffffffffffffff16815260200190815260200160002060006101000a81548160ff02191690831515021790555050505050565b6000806000806060600260003373ffffffffffffffffffffffffffffffffffffffff1673ffffffffffffffffffffffffffffffffffffffff16815260200190815260200160002060009054906101000a900460ff166105f2576040517f08c379a00000000000000000000000000000000000000000000000000000000081526004016105e990610f02565b60405180910390fd5b60008060003373ffffffffffffffffffffffffffffffffffffffff1673ffffffffffffffffffffffffffffffffffffffff16815260200190815260200160002090506000600160003373ffffffffffffffffffffffffffffffffffffffff1673ffffffffffffffffffffffffffffffffffffffff168152602001908152602001600020805480602002602001604051908101604052809291908181526020016000905b8282101561076d5783829060005260206000209060030201604051806060016040529081600082015481526020016001820180546106d290610fa4565b80601f01602080910402602001604051908101604052809291908181526020018280546106fe90610fa4565b801561074b5780601f106107205761010080835404028352916020019161074b565b820191906000526020600020905b81548152906001019060200180831161072e57829003601f168201915b5050505050815260200160028201548152505081526020019060010190610695565b5050505090508160000154826001015483600201548460030154849650965096509650965050509091929394565b6060600260003373ffffffffffffffffffffffffffffffffffffffff1673ffffffffffffffffffffffffffffffffffffffff16815260200190815260200160002060009054906101000a900460ff16610829576040517f08c379a000000000000000000000000000000000000000000000000000000000815260040161082090610f02565b60405180910390fd5b600160003373ffffffffffffffffffffffffffffffffffffffff1673ffffffffffffffffffffffffffffffffffffffff168152602001908152602001600020805480602002602001604051908101604052809291908181526020016000905b828210156109605783829060005260206000209060030201604051806060016040529081600082015481526020016001820180546108c590610fa4565b80601f01602080910402602001604051908101604052809291908181526020018280546108f190610fa4565b801561093e5780601f106109135761010080835404028352916020019161093e565b820191906000526020600020905b81548152906001019060200180831161092157829003601f168201915b5050505050815260200160028201548152505081526020019060010190610888565b50505050905090565b6000819050919050565b61097c81610969565b82525050565b60006080820190506109976000830187610973565b6109a46020830186610973565b6109b16040830185610973565b6109be6060830184610973565b95945050505050565b6000604051905090565b600080fd5b600080fd5b600080fd5b600080fd5b6000601f19601f8301169050919050565b7f4e487b7100000000000000000000000000000000000000000000000000000000600052604160045260246000fd5b610a2e826109e5565b810181811067ffffffffffffffff82111715610a4d57610a4c6109f6565b5b80604052505050565b6000610a606109c7565b9050610a6c8282610a25565b919050565b600067ffffffffffffffff821115610a8c57610a8b6109f6565b5b610a95826109e5565b9050602081019050919050565b82818337600083830152505050565b6000610ac4610abf84610a71565b610a56565b905082815260208101848484011115610ae057610adf6109e0565b5b610aeb848285610aa2565b509392505050565b600082601f830112610b0857610b076109db565b5b8135610b18848260208601610ab1565b91505092915050565b60008060408385031215610b3857610b376109d1565b5b600083013567ffffffffffffffff811115610b5657610b556109d6565b5b610b6285828601610af3565b925050602083013567ffffffffffffffff811115610b8357610b826109d6565b5b610b8f85828601610af3565b9150509250929050565b60008060008060808587031215610bb357610bb26109d1565b5b600085013567ffffffffffffffff811115610bd157610bd06109d6565b5b610bdd87828801610af3565b945050602085013567ffffffffffffffff811115610bfe57610bfd6109d6565b5b610c0a87828801610af3565b935050604085013567ffffffffffffffff811115610c2b57610c2a6109d6565b5b610c3787828801610af3565b925050606085013567ffffffffffffffff811115610c5857610c576109d6565b5b610c6487828801610af3565b91505092959194509250565b600081519050919050565b600082825260208201905092915050565b6000819050602082019050919050565b610ca581610969565b82525050565b600081519050919050565b600082825260208201905092915050565b60005b83811015610ce5578082015181840152602081019050610cca565b60008484015250505050565b6000610cfc82610cab565b610d068185610cb6565b9350610d16818560208601610cc7565b610d1f816109e5565b840191505092915050565b6000819050919050565b610d3d81610d2a565b82525050565b6000606083016000830151610d5b6000860182610c9c565b5060208301518482036020860152610d738282610cf1565b9150506040830151610d886040860182610d34565b508091505092915050565b6000610d9f8383610d43565b905092915050565b6000602082019050919050565b6000610dbf82610c70565b610dc98185610c7b565b935083602082028501610ddb85610c8c565b8060005b85811015610e175784840389528151610df88582610d93565b9450610e0383610da7565b925060208a01995050600181019050610ddf565b50829750879550505050505092915050565b600060a082019050610e3e6000830188610973565b610e4b6020830187610973565b610e586040830186610973565b610e656060830185610973565b8181036080830152610e778184610db4565b90509695505050505050565b60006020820190508181036000830152610e9d8184610db4565b905092915050565b600082825260208201905092915050565b7f55736572206e6f74207265676973746572656400000000000000000000000000600082015250565b6000610eec601383610ea5565b9150610ef782610eb6565b602082019050919050565b60006020820190508181036000830152610f1b81610edf565b9050919050565b600081905092915050565b6000610f3882610cab565b610f428185610f22565b9350610f52818560208601610cc7565b80840191505092915050565b6000610f6a8284610f2d565b915081905092915050565b7f4e487b7100000000000000000000000000000000000000000000000000000000600052602260045260246000fd5b60006002820490506001821680610fbc57607f821691505b602082108103610fcf57610fce610f75565b5b50919050565b60008190508160005260206000209050919050565b60006020601f8301049050919050565b600082821b905092915050565b6000600883026110377fffffffffffffffffffffffffffffffffffffffffffffffffffffffffffffffff82610ffa565b6110418683610ffa565b95508019841693508086168417925050509392505050565b6000819050919050565b600061107e61107961107484610d2a565b611059565b610d2a565b9050919050565b6000819050919050565b61109883611063565b6110ac6110a482611085565b848454611007565b825550505050565b600090565b6110c16110b4565b6110cc81848461108f565b505050565b5b818110156110f0576110e56000826110b9565b6001810190506110d2565b5050565b601f8211156111355761110681610fd5565b61110f84610fea565b8101602085101561111e578190505b61113261112a85610fea565b8301826110d1565b50505b505050565b600082821c905092915050565b60006111586000198460080261113a565b1980831691505092915050565b60006111718383611147565b9150826002028217905092915050565b61118a82610cab565b67ffffffffffffffff8111156111a3576111a26109f6565b5b6111ad8254610fa4565b6111b88282856110f4565b600060209050601f8311600181146111eb57600084156111d9578287015190505b6111e38582611165565b86555061124b565b601f1984166111f986610fd5565b60005b82811015611221578489015182556001820191506020850194506020810190506111fc565b8683101561123e578489015161123a601f891682611147565b8355505b6001600288020188555050505b505050505050565b7f5573657220616c72656164792072656769737465726564000000000000000000600082015250565b6000611289601783610ea5565b915061129482611253565b602082019050919050565b600060208201905081810360008301526112b88161127c565b905091905056fea26469706673582212209570607532b46c54a0150c81d42017866c37833a19157795625567ebd5905f8864736f6c63430008180033",
  "linkReferences": {},
  "deployedLinkReferences": {}
}